{
  "_format": "hh-sol-artifact-1",
  "contractName": "ChigozieToken",
  "sourceName": "contracts/ChigozieToken.sol",
  "abi": [
    {
      "inputs": [],
      "stateMutability": "nonpayable",
      "type": "constructor"
    },
    {
      "anonymous": false,
      "inputs": [
        {
          "indexed": true,
          "internalType": "address",
          "name": "owner",
          "type": "address"
        },
        {
          "indexed": true,
          "internalType": "address",
          "name": "spender",
          "type": "address"
        },
        {
          "indexed": false,
          "internalType": "uint256",
          "name": "value",
          "type": "uint256"
        }
      ],
      "name": "Approval",
      "type": "event"
    },
    {
      "anonymous": false,
      "inputs": [
        {
          "indexed": true,
          "internalType": "address",
          "name": "from",
          "type": "address"
        },
        {
          "indexed": true,
          "internalType": "address",
          "name": "to",
          "type": "address"
        },
        {
          "indexed": false,
          "internalType": "uint256",
          "name": "value",
          "type": "uint256"
        }
      ],
      "name": "Transfer",
      "type": "event"
    },
    {
      "inputs": [
        {
          "internalType": "address",
          "name": "owner",
          "type": "address"
        },
        {
          "internalType": "address",
          "name": "spender",
          "type": "address"
        }
      ],
      "name": "allowance",
      "outputs": [
        {
          "internalType": "uint256",
          "name": "",
          "type": "uint256"
        }
      ],
      "stateMutability": "view",
      "type": "function"
    },
    {
      "inputs": [
        {
          "internalType": "address",
          "name": "spender",
          "type": "address"
        },
        {
          "internalType": "uint256",
          "name": "amount",
          "type": "uint256"
        }
      ],
      "name": "approve",
      "outputs": [
        {
          "internalType": "bool",
          "name": "",
          "type": "bool"
        }
      ],
      "stateMutability": "nonpayable",
      "type": "function"
    },
    {
      "inputs": [
        {
          "internalType": "address",
          "name": "account",
          "type": "address"
        }
      ],
      "name": "balanceOf",
      "outputs": [
        {
          "internalType": "uint256",
          "name": "",
          "type": "uint256"
        }
      ],
      "stateMutability": "view",
      "type": "function"
    },
    {
      "inputs": [
        {
          "internalType": "address",
          "name": "receiver",
          "type": "address"
        }
      ],
      "name": "buyToken",
      "outputs": [],
      "stateMutability": "payable",
      "type": "function"
    },
    {
      "inputs": [],
      "name": "decimals",
      "outputs": [
        {
          "internalType": "uint8",
          "name": "",
          "type": "uint8"
        }
      ],
      "stateMutability": "view",
      "type": "function"
    },
    {
      "inputs": [
        {
          "internalType": "address",
          "name": "spender",
          "type": "address"
        },
        {
          "internalType": "uint256",
          "name": "subtractedValue",
          "type": "uint256"
        }
      ],
      "name": "decreaseAllowance",
      "outputs": [
        {
          "internalType": "bool",
          "name": "",
          "type": "bool"
        }
      ],
      "stateMutability": "nonpayable",
      "type": "function"
    },
    {
      "inputs": [
        {
          "internalType": "address",
          "name": "spender",
          "type": "address"
        },
        {
          "internalType": "uint256",
          "name": "addedValue",
          "type": "uint256"
        }
      ],
      "name": "increaseAllowance",
      "outputs": [
        {
          "internalType": "bool",
          "name": "",
          "type": "bool"
        }
      ],
      "stateMutability": "nonpayable",
      "type": "function"
    },
    {
      "inputs": [],
      "name": "name",
      "outputs": [
        {
          "internalType": "string",
          "name": "",
          "type": "string"
        }
      ],
      "stateMutability": "view",
      "type": "function"
    },
    {
      "inputs": [],
      "name": "symbol",
      "outputs": [
        {
          "internalType": "string",
          "name": "",
          "type": "string"
        }
      ],
      "stateMutability": "view",
      "type": "function"
    },
    {
      "inputs": [],
      "name": "totalSupply",
      "outputs": [
        {
          "internalType": "uint256",
          "name": "",
          "type": "uint256"
        }
      ],
      "stateMutability": "view",
      "type": "function"
    },
    {
      "inputs": [
        {
          "internalType": "address",
          "name": "to",
          "type": "address"
        },
        {
          "internalType": "uint256",
          "name": "amount",
          "type": "uint256"
        }
      ],
      "name": "transfer",
      "outputs": [
        {
          "internalType": "bool",
          "name": "",
          "type": "bool"
        }
      ],
      "stateMutability": "nonpayable",
      "type": "function"
    },
    {
      "inputs": [
        {
          "internalType": "address",
          "name": "from",
          "type": "address"
        },
        {
          "internalType": "address",
          "name": "to",
          "type": "address"
        },
        {
          "internalType": "uint256",
          "name": "amount",
          "type": "uint256"
        }
      ],
      "name": "transferFrom",
      "outputs": [
        {
          "internalType": "bool",
          "name": "",
          "type": "bool"
        }
      ],
      "stateMutability": "nonpayable",
      "type": "function"
    }
  ],
  "bytecode": "0x60806040523480156200001157600080fd5b506040518060400160405280600881526020017f436869676f7a69650000000000000000000000000000000000000000000000008152506040518060400160405280600581526020017f434845544b00000000000000000000000000000000000000000000000000000081525081600390805190602001906200009692919062000250565b508060049080519060200190620000af92919062000250565b505050620000c733620f4240620000cd60201b60201c565b620004ac565b600073ffffffffffffffffffffffffffffffffffffffff168273ffffffffffffffffffffffffffffffffffffffff16141562000140576040517f08c379a0000000000000000000000000000000000000000000000000000000008152600401620001379062000338565b60405180910390fd5b62000154600083836200024660201b60201c565b806002600082825462000168919062000388565b92505081905550806000808473ffffffffffffffffffffffffffffffffffffffff1673ffffffffffffffffffffffffffffffffffffffff1681526020019081526020016000206000828254620001bf919062000388565b925050819055508173ffffffffffffffffffffffffffffffffffffffff16600073ffffffffffffffffffffffffffffffffffffffff167fddf252ad1be2c89b69c2b068fc378daa952ba7f163c4a11628f55a4df523b3ef836040516200022691906200035a565b60405180910390a362000242600083836200024b60201b60201c565b5050565b505050565b505050565b8280546200025e90620003ef565b90600052602060002090601f016020900481019282620002825760008555620002ce565b82601f106200029d57805160ff1916838001178555620002ce565b82800160010185558215620002ce579182015b82811115620002cd578251825591602001919060010190620002b0565b5b509050620002dd9190620002e1565b5090565b5b80821115620002fc576000816000905550600101620002e2565b5090565b60006200030f601f8362000377565b91506200031c8262000483565b602082019050919050565b6200033281620003e5565b82525050565b60006020820190508181036000830152620003538162000300565b9050919050565b600060208201905062000371600083018462000327565b92915050565b600082825260208201905092915050565b60006200039582620003e5565b9150620003a283620003e5565b9250827fffffffffffffffffffffffffffffffffffffffffffffffffffffffffffffffff03821115620003da57620003d962000425565b5b828201905092915050565b6000819050919050565b600060028204905060018216806200040857607f821691505b602082108114156200041f576200041e62000454565b5b50919050565b7f4e487b7100000000000000000000000000000000000000000000000000000000600052601160045260246000fd5b7f4e487b7100000000000000000000000000000000000000000000000000000000600052602260045260246000fd5b7f45524332303a206d696e7420746f20746865207a65726f206164647265737300600082015250565b6114d080620004bc6000396000f3fe6080604052600436106100a75760003560e01c806370a082311161006457806370a08231146101e45780637e72fb521461022157806395d89b411461023d578063a457c2d714610268578063a9059cbb146102a5578063dd62ed3e146102e2576100a7565b806306fdde03146100ac578063095ea7b3146100d757806318160ddd1461011457806323b872dd1461013f578063313ce5671461017c57806339509351146101a7575b600080fd5b3480156100b857600080fd5b506100c161031f565b6040516100ce9190610edc565b60405180910390f35b3480156100e357600080fd5b506100fe60048036038101906100f99190610d2a565b6103b1565b60405161010b9190610ec1565b60405180910390f35b34801561012057600080fd5b506101296103d4565b6040516101369190610fde565b60405180910390f35b34801561014b57600080fd5b5061016660048036038101906101619190610cdb565b6103de565b6040516101739190610ec1565b60405180910390f35b34801561018857600080fd5b5061019161040d565b60405161019e9190610ff9565b60405180910390f35b3480156101b357600080fd5b506101ce60048036038101906101c99190610d2a565b610416565b6040516101db9190610ec1565b60405180910390f35b3480156101f057600080fd5b5061020b60048036038101906102069190610c76565b6104c0565b6040516102189190610fde565b60405180910390f35b61023b60048036038101906102369190610c76565b610508565b005b34801561024957600080fd5b5061025261053c565b60405161025f9190610edc565b60405180910390f35b34801561027457600080fd5b5061028f600480360381019061028a9190610d2a565b6105ce565b60405161029c9190610ec1565b60405180910390f35b3480156102b157600080fd5b506102cc60048036038101906102c79190610d2a565b6106b8565b6040516102d99190610ec1565b60405180910390f35b3480156102ee57600080fd5b5061030960048036038101906103049190610c9f565b6106db565b6040516103169190610fde565b60405180910390f35b60606003805461032e90611199565b80601f016020809104026020016040519081016040528092919081815260200182805461035a90611199565b80156103a75780601f1061037c576101008083540402835291602001916103a7565b820191906000526020600020905b81548152906001019060200180831161038a57829003601f168201915b5050505050905090565b6000806103bc610762565b90506103c981858561076a565b600191505092915050565b6000600254905090565b6000806103e9610762565b90506103f6858285610935565b6104018585856109c1565b60019150509392505050565b60006012905090565b600080610421610762565b90506104b5818585600160008673ffffffffffffffffffffffffffffffffffffffff1673ffffffffffffffffffffffffffffffffffffffff16815260200190815260200160002060008973ffffffffffffffffffffffffffffffffffffffff1673ffffffffffffffffffffffffffffffffffffffff168152602001908152602001600020546104b09190611030565b61076a565b600191505092915050565b60008060008373ffffffffffffffffffffffffffffffffffffffff1673ffffffffffffffffffffffffffffffffffffffff168152602001908152602001600020549050919050565b60006103e8670de0b6b3a7640000346105219190611086565b61052b91906110b7565b905061053782826106b8565b505050565b60606004805461054b90611199565b80601f016020809104026020016040519081016040528092919081815260200182805461057790611199565b80156105c45780601f10610599576101008083540402835291602001916105c4565b820191906000526020600020905b8154815290600101906020018083116105a757829003601f168201915b5050505050905090565b6000806105d9610762565b90506000600160008373ffffffffffffffffffffffffffffffffffffffff1673ffffffffffffffffffffffffffffffffffffffff16815260200190815260200160002060008673ffffffffffffffffffffffffffffffffffffffff1673ffffffffffffffffffffffffffffffffffffffff1681526020019081526020016000205490508381101561069f576040517f08c379a000000000000000000000000000000000000000000000000000000000815260040161069690610fbe565b60405180910390fd5b6106ac828686840361076a565b60019250505092915050565b6000806106c3610762565b90506106d08185856109c1565b600191505092915050565b6000600160008473ffffffffffffffffffffffffffffffffffffffff1673ffffffffffffffffffffffffffffffffffffffff16815260200190815260200160002060008373ffffffffffffffffffffffffffffffffffffffff1673ffffffffffffffffffffffffffffffffffffffff16815260200190815260200160002054905092915050565b600033905090565b600073ffffffffffffffffffffffffffffffffffffffff168373ffffffffffffffffffffffffffffffffffffffff1614156107da576040517f08c379a00000000000000000000000000000000000000000000000000000000081526004016107d190610f9e565b60405180910390fd5b600073ffffffffffffffffffffffffffffffffffffffff168273ffffffffffffffffffffffffffffffffffffffff16141561084a576040517f08c379a000000000000000000000000000000000000000000000000000000000815260040161084190610f1e565b60405180910390fd5b80600160008573ffffffffffffffffffffffffffffffffffffffff1673ffffffffffffffffffffffffffffffffffffffff16815260200190815260200160002060008473ffffffffffffffffffffffffffffffffffffffff1673ffffffffffffffffffffffffffffffffffffffff168152602001908152602001600020819055508173ffffffffffffffffffffffffffffffffffffffff168373ffffffffffffffffffffffffffffffffffffffff167f8c5be1e5ebec7d5bd14f71427d1e84f3dd0314c0f7b2291e5b200ac8c7c3b925836040516109289190610fde565b60405180910390a3505050565b600061094184846106db565b90507fffffffffffffffffffffffffffffffffffffffffffffffffffffffffffffffff81146109bb57818110156109ad576040517f08c379a00000000000000000000000000000000000000000000000000000000081526004016109a490610f3e565b60405180910390fd5b6109ba848484840361076a565b5b50505050565b600073ffffffffffffffffffffffffffffffffffffffff168373ffffffffffffffffffffffffffffffffffffffff161415610a31576040517f08c379a0000000000000000000000000000000000000000000000000000000008152600401610a2890610f7e565b60405180910390fd5b600073ffffffffffffffffffffffffffffffffffffffff168273ffffffffffffffffffffffffffffffffffffffff161415610aa1576040517f08c379a0000000000000000000000000000000000000000000000000000000008152600401610a9890610efe565b60405180910390fd5b610aac838383610c42565b60008060008573ffffffffffffffffffffffffffffffffffffffff1673ffffffffffffffffffffffffffffffffffffffff16815260200190815260200160002054905081811015610b32576040517f08c379a0000000000000000000000000000000000000000000000000000000008152600401610b2990610f5e565b60405180910390fd5b8181036000808673ffffffffffffffffffffffffffffffffffffffff1673ffffffffffffffffffffffffffffffffffffffff16815260200190815260200160002081905550816000808573ffffffffffffffffffffffffffffffffffffffff1673ffffffffffffffffffffffffffffffffffffffff1681526020019081526020016000206000828254610bc59190611030565b925050819055508273ffffffffffffffffffffffffffffffffffffffff168473ffffffffffffffffffffffffffffffffffffffff167fddf252ad1be2c89b69c2b068fc378daa952ba7f163c4a11628f55a4df523b3ef84604051610c299190610fde565b60405180910390a3610c3c848484610c47565b50505050565b505050565b505050565b600081359050610c5b8161146c565b92915050565b600081359050610c7081611483565b92915050565b600060208284031215610c8857600080fd5b6000610c9684828501610c4c565b91505092915050565b60008060408385031215610cb257600080fd5b6000610cc085828601610c4c565b9250506020610cd185828601610c4c565b9150509250929050565b600080600060608486031215610cf057600080fd5b6000610cfe86828701610c4c565b9350506020610d0f86828701610c4c565b9250506040610d2086828701610c61565b9150509250925092565b60008060408385031215610d3d57600080fd5b6000610d4b85828601610c4c565b9250506020610d5c85828601610c61565b9150509250929050565b610d6f81611123565b82525050565b6000610d8082611014565b610d8a818561101f565b9350610d9a818560208601611166565b610da381611258565b840191505092915050565b6000610dbb60238361101f565b9150610dc682611269565b604082019050919050565b6000610dde60228361101f565b9150610de9826112b8565b604082019050919050565b6000610e01601d8361101f565b9150610e0c82611307565b602082019050919050565b6000610e2460268361101f565b9150610e2f82611330565b604082019050919050565b6000610e4760258361101f565b9150610e528261137f565b604082019050919050565b6000610e6a60248361101f565b9150610e75826113ce565b604082019050919050565b6000610e8d60258361101f565b9150610e988261141d565b604082019050919050565b610eac8161114f565b82525050565b610ebb81611159565b82525050565b6000602082019050610ed66000830184610d66565b92915050565b60006020820190508181036000830152610ef68184610d75565b905092915050565b60006020820190508181036000830152610f1781610dae565b9050919050565b60006020820190508181036000830152610f3781610dd1565b9050919050565b60006020820190508181036000830152610f5781610df4565b9050919050565b60006020820190508181036000830152610f7781610e17565b9050919050565b60006020820190508181036000830152610f9781610e3a565b9050919050565b60006020820190508181036000830152610fb781610e5d565b9050919050565b60006020820190508181036000830152610fd781610e80565b9050919050565b6000602082019050610ff36000830184610ea3565b92915050565b600060208201905061100e6000830184610eb2565b92915050565b600081519050919050565b600082825260208201905092915050565b600061103b8261114f565b91506110468361114f565b9250827fffffffffffffffffffffffffffffffffffffffffffffffffffffffffffffffff0382111561107b5761107a6111cb565b5b828201905092915050565b60006110918261114f565b915061109c8361114f565b9250826110ac576110ab6111fa565b5b828204905092915050565b60006110c28261114f565b91506110cd8361114f565b9250817fffffffffffffffffffffffffffffffffffffffffffffffffffffffffffffffff0483118215151615611106576111056111cb565b5b828202905092915050565b600061111c8261112f565b9050919050565b60008115159050919050565b600073ffffffffffffffffffffffffffffffffffffffff82169050919050565b6000819050919050565b600060ff82169050919050565b60005b83811015611184578082015181840152602081019050611169565b83811115611193576000848401525b50505050565b600060028204905060018216806111b157607f821691505b602082108114156111c5576111c4611229565b5b50919050565b7f4e487b7100000000000000000000000000000000000000000000000000000000600052601160045260246000fd5b7f4e487b7100000000000000000000000000000000000000000000000000000000600052601260045260246000fd5b7f4e487b7100000000000000000000000000000000000000000000000000000000600052602260045260246000fd5b6000601f19601f8301169050919050565b7f45524332303a207472616e7366657220746f20746865207a65726f206164647260008201527f6573730000000000000000000000000000000000000000000000000000000000602082015250565b7f45524332303a20617070726f766520746f20746865207a65726f20616464726560008201527f7373000000000000000000000000000000000000000000000000000000000000602082015250565b7f45524332303a20696e73756666696369656e7420616c6c6f77616e6365000000600082015250565b7f45524332303a207472616e7366657220616d6f756e742065786365656473206260008201527f616c616e63650000000000000000000000000000000000000000000000000000602082015250565b7f45524332303a207472616e736665722066726f6d20746865207a65726f20616460008201527f6472657373000000000000000000000000000000000000000000000000000000602082015250565b7f45524332303a20617070726f76652066726f6d20746865207a65726f2061646460008201527f7265737300000000000000000000000000000000000000000000000000000000602082015250565b7f45524332303a2064656372656173656420616c6c6f77616e63652062656c6f7760008201527f207a65726f000000000000000000000000000000000000000000000000000000602082015250565b61147581611111565b811461148057600080fd5b50565b61148c8161114f565b811461149757600080fd5b5056fea264697066735822122035e163ba20dbdfddf9a9582b69a1791759795c72311ffd4c2252ccbca75feb2a64736f6c63430008010033",
  "linkReferences": {},
  "deployedLinkReferences": {}
}